{
  "transactions": [
    {
      "hash": "0x990dcbf1ac039d1ee0ecdb144ba101046e3180858ab1a1af4424dc71081ea6b0",
      "transactionType": "CALL",
      "contractName": null,
      "contractAddress": "0x41493daf733ef195d0fce9dc8a924e8e911b0fae",
      "function": "initializeERC20(string,string)",
      "arguments": [
        "fatBERA",
        "fatBERA"
      ],
      "transaction": {
        "from": "0xd5cc24ca0c1d222cb143d0d8d02258f1e3994e60",
        "to": "0x41493daf733ef195d0fce9dc8a924e8e911b0fae",
        "gas": "0x22db8",
        "value": "0x0",
        "input": "0x1694fc56000000000000000000000000000000000000000000000000000000000000004000000000000000000000000000000000000000000000000000000000000000800000000000000000000000000000000000000000000000000000000000000007666174424552410000000000000000000000000000000000000000000000000000000000000000000000000000000000000000000000000000000000000000076661744245524100000000000000000000000000000000000000000000000000",
        "nonce": "0x58f",
        "chainId": "0x138d4"
      },
      "additionalContracts": [],
      "isFixedGasLimit": false
    }
  ],
  "receipts": [
    {
      "status": "0x1",
      "cumulativeGasUsed": "0xfeb1f4",
      "logs": [
        {
          "address": "0x41493daf733ef195d0fce9dc8a924e8e911b0fae",
          "topics": [
            "0xc7f505b2f371ae2175ee4913f4499e1f2633a7b5936321eed1cdaeb6115181d2"
          ],
          "data": "0x0000000000000000000000000000000000000000000000000000000000000001",
          "blockHash": "0x5dd7e278434f5e7cb2020e122b7b92e4d936acdf69b8b4efaae53bc687eed6f2",
          "blockNumber": "0x922a8c",
          "transactionHash": "0x990dcbf1ac039d1ee0ecdb144ba101046e3180858ab1a1af4424dc71081ea6b0",
          "transactionIndex": "0x88",
          "logIndex": "0x182",
          "removed": false
        }
      ],
      "logsBloom": "0x00000000000000800000000000000000000000000000000000010000000000000000000000000000000000000000000000000000000000000000000000000000000000000000000000000000000000000000000000000000000000000000000000000000000000000000000000000000000000000000000000000000000000000000000000000000000800000000000000000000000080000000000000000000000000000000000000000000000000000000000000000000000000000000000000000000000000000000000000000000000000000004000000000000000000001000000000000000000000000000000000000000000000000000000000000000",
      "type": "0x2",
      "transactionHash": "0x990dcbf1ac039d1ee0ecdb144ba101046e3180858ab1a1af4424dc71081ea6b0",
      "transactionIndex": "0x88",
      "blockHash": "0x5dd7e278434f5e7cb2020e122b7b92e4d936acdf69b8b4efaae53bc687eed6f2",
      "blockNumber": "0x922a8c",
      "gasUsed": "0x17d59",
      "effectiveGasPrice": "0x28effe3b6",
      "from": "0xd5cc24ca0c1d222cb143d0d8d02258f1e3994e60",
      "to": "0x41493daf733ef195d0fce9dc8a924e8e911b0fae",
      "contractAddress": null
    }
  ],
  "libraries": [],
  "pending": [],
  "returns": {},
  "timestamp": 1737430048,
  "chain": 80084,
  "commit": "c335319"
}