{
  "transactions": [
    {
      "hash": null,
      "transactionType": "CALL",
      "contractName": null,
      "contractAddress": "0x41493daf733ef195d0fce9dc8a924e8e911b0fae",
      "function": "initializeERC4626(address)",
      "arguments": [
        "0x7507c1dc16935B82698e4C63f2746A2fCf994dF8"
      ],
      "transaction": {
        "from": "0xd5cc24ca0c1d222cb143d0d8d02258f1e3994e60",
        "to": "0x41493daf733ef195d0fce9dc8a924e8e911b0fae",
        "gas": "0x55a93ef6",
        "value": "0x0",
        "input": "0x4df62ee50000000000000000000000007507c1dc16935b82698e4c63f2746a2fcf994df8",
        "nonce": "0x590",
        "chainId": "0x138d4"
      },
      "additionalContracts": [],
      "isFixedGasLimit": false
    }
  ],
  "receipts": [],
  "libraries": [],
  "pending": [],
  "returns": {},
  "timestamp": 1737430060,
  "chain": 80084,
  "commit": "c335319"
}