{
  "transactions": [
    {
      "hash": "0x2d8036e4d02cb3870e3437e208800011235f66be3bb12f640355d3e4d7da5b4e",
      "transactionType": "CALL",
      "contractName": null,
      "contractAddress": "0x82a5526d964df2e48b7088e81bd434d515b79b8c",
      "function": "initializeERC20(string,string)",
      "arguments": [
        "fatBERA",
        "fatBERA"
      ],
      "transaction": {
        "from": "0xd5cc24ca0c1d222cb143d0d8d02258f1e3994e60",
        "to": "0x82a5526d964df2e48b7088e81bd434d515b79b8c",
        "gas": "0x22db8",
        "value": "0x0",
        "input": "0x1694fc56000000000000000000000000000000000000000000000000000000000000004000000000000000000000000000000000000000000000000000000000000000800000000000000000000000000000000000000000000000000000000000000007666174424552410000000000000000000000000000000000000000000000000000000000000000000000000000000000000000000000000000000000000000076661744245524100000000000000000000000000000000000000000000000000",
        "nonce": "0x599",
        "chainId": "0x138d4"
      },
      "additionalContracts": [],
      "isFixedGasLimit": false
    }
  ],
  "receipts": [
    {
      "status": "0x1",
      "cumulativeGasUsed": "0xbcae29",
      "logs": [
        {
          "address": "0x82a5526d964df2e48b7088e81bd434d515b79b8c",
          "topics": [
            "0xc7f505b2f371ae2175ee4913f4499e1f2633a7b5936321eed1cdaeb6115181d2"
          ],
          "data": "0x0000000000000000000000000000000000000000000000000000000000000001",
          "blockHash": "0x81617c033fe14e93764bc45206a683f980cb679baf761c9615edfcef7804659e",
          "blockNumber": "0x922c37",
          "transactionHash": "0x2d8036e4d02cb3870e3437e208800011235f66be3bb12f640355d3e4d7da5b4e",
          "transactionIndex": "0x6f",
          "logIndex": "0x141",
          "removed": false
        }
      ],
      "logsBloom": "0x00000000000000000000000000000000000000000000000000000000000000000000000000000000000000000000000000000000000000000000000000000000000000000000000000000000000000000000000080000000000000000000000000000000000000000000000000000000000000000000000000000000000000000000000000000000000800000000000000000000000080000000000000000000000000000000000000000000000000000000000000000000000000000200000000000000000000000000000000000000000000000004000002000000000000000000000000000000000000000000000000000000000000000000000000000000",
      "type": "0x2",
      "transactionHash": "0x2d8036e4d02cb3870e3437e208800011235f66be3bb12f640355d3e4d7da5b4e",
      "transactionIndex": "0x6f",
      "blockHash": "0x81617c033fe14e93764bc45206a683f980cb679baf761c9615edfcef7804659e",
      "blockNumber": "0x922c37",
      "gasUsed": "0x17d59",
      "effectiveGasPrice": "0x24882c9a8",
      "from": "0xd5cc24ca0c1d222cb143d0d8d02258f1e3994e60",
      "to": "0x82a5526d964df2e48b7088e81bd434d515b79b8c",
      "contractAddress": null
    }
  ],
  "libraries": [],
  "pending": [],
  "returns": {},
  "timestamp": 1737430969,
  "chain": 80084,
  "commit": "c335319"
}