{
  "transactions": [
    {
      "hash": "0x52825951892863a43cf688a7b61d47b2036f61367d48c75ef23c5097be61042d",
      "transactionType": "CALL",
      "contractName": null,
      "contractAddress": "0xfd0c680a66bfc2419e93560a5ce3e1fb9365c049",
      "function": "initializeERC20(string,string)",
      "arguments": [
        "fatBERA",
        "fatBERA"
      ],
      "transaction": {
        "from": "0xd5cc24ca0c1d222cb143d0d8d02258f1e3994e60",
        "to": "0xfd0c680a66bfc2419e93560a5ce3e1fb9365c049",
        "gas": "0x22db8",
        "value": "0x0",
        "input": "0x1694fc56000000000000000000000000000000000000000000000000000000000000004000000000000000000000000000000000000000000000000000000000000000800000000000000000000000000000000000000000000000000000000000000007666174424552410000000000000000000000000000000000000000000000000000000000000000000000000000000000000000000000000000000000000000076661744245524100000000000000000000000000000000000000000000000000",
        "nonce": "0x593",
        "chainId": "0x138d4"
      },
      "additionalContracts": [],
      "isFixedGasLimit": false
    }
  ],
  "receipts": [
    {
      "status": "0x1",
      "cumulativeGasUsed": "0xc7b21f",
      "logs": [
        {
          "address": "0xfd0c680a66bfc2419e93560a5ce3e1fb9365c049",
          "topics": [
            "0xc7f505b2f371ae2175ee4913f4499e1f2633a7b5936321eed1cdaeb6115181d2"
          ],
          "data": "0x0000000000000000000000000000000000000000000000000000000000000001",
          "blockHash": "0x7b15612c1b37442faf68faec806b904ae922de7c2ee4e57d0c0a4bc97d3b25d1",
          "blockNumber": "0x922b51",
          "transactionHash": "0x52825951892863a43cf688a7b61d47b2036f61367d48c75ef23c5097be61042d",
          "transactionIndex": "0x73",
          "logIndex": "0x12b",
          "removed": false
        }
      ],
      "logsBloom": "0x00000000000000000000000000000000000000000000000000000000000000000000000000000000000000000040000000000000000000000000000008000000000000000000000000000000000000000000000000000000000000000000000000000000000000000000000000000000000000000000000000000000000000000000000000000000000800000000000000000000000080000000000000000000000000000000000000000000000000000000000000000000000000000000000000000000000000000000000000000000000000000004000000000000000000000000000000000000000000000000000000000000000080000000000000000000",
      "type": "0x2",
      "transactionHash": "0x52825951892863a43cf688a7b61d47b2036f61367d48c75ef23c5097be61042d",
      "transactionIndex": "0x73",
      "blockHash": "0x7b15612c1b37442faf68faec806b904ae922de7c2ee4e57d0c0a4bc97d3b25d1",
      "blockNumber": "0x922b51",
      "gasUsed": "0x17d59",
      "effectiveGasPrice": "0x2e95e39f6",
      "from": "0xd5cc24ca0c1d222cb143d0d8d02258f1e3994e60",
      "to": "0xfd0c680a66bfc2419e93560a5ce3e1fb9365c049",
      "contractAddress": null
    }
  ],
  "libraries": [],
  "pending": [],
  "returns": {},
  "timestamp": 1737430487,
  "chain": 80084,
  "commit": "c335319"
}