{
  "transactions": [
    {
      "hash": "0x12e7b7c875cef661eb5b04fc7cca644a7ed06d97b82053d73fd13d340ddcafbf",
      "transactionType": "CALL",
      "contractName": null,
      "contractAddress": "0xa36e7075d31df39fc817c17f3a9ace5411eaf859",
      "function": "initializeERC20(string,string)",
      "arguments": [
        "fatBERA",
        "fatBERA"
      ],
      "transaction": {
        "from": "0xd5cc24ca0c1d222cb143d0d8d02258f1e3994e60",
        "to": "0xa36e7075d31df39fc817c17f3a9ace5411eaf859",
        "gas": "0x22db8",
        "value": "0x0",
        "input": "0x1694fc56000000000000000000000000000000000000000000000000000000000000004000000000000000000000000000000000000000000000000000000000000000800000000000000000000000000000000000000000000000000000000000000007666174424552410000000000000000000000000000000000000000000000000000000000000000000000000000000000000000000000000000000000000000076661744245524100000000000000000000000000000000000000000000000000",
        "nonce": "0x596",
        "chainId": "0x138d4"
      },
      "additionalContracts": [],
      "isFixedGasLimit": false
    }
  ],
  "receipts": [
    {
      "status": "0x1",
      "cumulativeGasUsed": "0xd34f34",
      "logs": [
        {
          "address": "0xa36e7075d31df39fc817c17f3a9ace5411eaf859",
          "topics": [
            "0xc7f505b2f371ae2175ee4913f4499e1f2633a7b5936321eed1cdaeb6115181d2"
          ],
          "data": "0x0000000000000000000000000000000000000000000000000000000000000001",
          "blockHash": "0xb5e258fdab256cd4c7e3acb27b8b064a4f7b05ecfffb639f292380f53f457051",
          "blockNumber": "0x922bd0",
          "transactionHash": "0x12e7b7c875cef661eb5b04fc7cca644a7ed06d97b82053d73fd13d340ddcafbf",
          "transactionIndex": "0x86",
          "logIndex": "0x1ad",
          "removed": false
        }
      ],
      "logsBloom": "0x00000000000000000000000000000000000000000000000000000000000000000000000000000000000000000000000000000000000020000000200000000000000000000000000000000000000000000000000000000000000000000000000000000000000000000000000000040000000000000000000000000000000000000000000000000000000800000000000000000000000080000000000000000000000000000000000000000000000000000000000000000000000000000000000000000000000000000000000000000000000000000004000000000000000000000000000000000000000000000000000000000000000000000000000000000000",
      "type": "0x2",
      "transactionHash": "0x12e7b7c875cef661eb5b04fc7cca644a7ed06d97b82053d73fd13d340ddcafbf",
      "transactionIndex": "0x86",
      "blockHash": "0xb5e258fdab256cd4c7e3acb27b8b064a4f7b05ecfffb639f292380f53f457051",
      "blockNumber": "0x922bd0",
      "gasUsed": "0x17d59",
      "effectiveGasPrice": "0x2505fc332",
      "from": "0xd5cc24ca0c1d222cb143d0d8d02258f1e3994e60",
      "to": "0xa36e7075d31df39fc817c17f3a9ace5411eaf859",
      "contractAddress": null
    }
  ],
  "libraries": [],
  "pending": [],
  "returns": {},
  "timestamp": 1737430749,
  "chain": 80084,
  "commit": "c335319"
}