{
  "transactions": [
    {
      "hash": null,
      "transactionType": "CALL",
      "contractName": null,
      "contractAddress": "0x6a842fe5dc524a05015f366055748ff7eb1b95d3",
      "function": "initialize(address,address,uint256)",
      "arguments": [
        "0x7507c1dc16935B82698e4C63f2746A2fCf994dF8",
        "0xD5cC24cA0C1d222cb143d0D8D02258f1e3994E60",
        "10000000000000000000000000"
      ],
      "transaction": {
        "from": "0xd5cc24ca0c1d222cb143d0d8d02258f1e3994e60",
        "to": "0x6a842fe5dc524a05015f366055748ff7eb1b95d3",
        "gas": "0x55abae6c",
        "value": "0x0",
        "input": "0x1794bb3c0000000000000000000000007507c1dc16935b82698e4c63f2746a2fcf994df8000000000000000000000000d5cc24ca0c1d222cb143d0d8d02258f1e3994e60000000000000000000000000000000000000000000084595161401484a000000",
        "nonce": "0x581",
        "chainId": "0x138d4"
      },
      "additionalContracts": [],
      "isFixedGasLimit": false
    }
  ],
  "receipts": [],
  "libraries": [],
  "pending": [],
  "returns": {},
  "timestamp": 1737423964,
  "chain": 80084,
  "commit": "6aa5182"
}